{
  "_format": "hh-sol-artifact-1",
  "contractName": "SimpleStorage",
  "sourceName": "contracts/SimpleStorage.sol",
  "abi": [
    {
      "anonymous": false,
      "inputs": [
        {
          "indexed": false,
          "internalType": "uint256",
          "name": "newValue",
          "type": "uint256"
        }
      ],
      "name": "DataChanged",
      "type": "event"
    },
    {
      "inputs": [],
      "name": "data",
      "outputs": [
        {
          "internalType": "uint256",
          "name": "",
          "type": "uint256"
        }
      ],
      "stateMutability": "view",
      "type": "function"
    },
    {
      "inputs": [],
      "name": "get",
      "outputs": [
        {
          "internalType": "uint256",
          "name": "",
          "type": "uint256"
        }
      ],
      "stateMutability": "view",
      "type": "function"
    },
    {
      "inputs": [
        {
          "internalType": "uint256",
          "name": "x",
          "type": "uint256"
        }
      ],
      "name": "set",
      "outputs": [],
      "stateMutability": "nonpayable",
      "type": "function"
    }
  ],
  "bytecode": "0x608060405234801561001057600080fd5b506101b6806100206000396000f3fe608060405234801561001057600080fd5b50600436106100415760003560e01c806360fe47b1146100465780636d4ce63c1461006257806373d4a13a14610080575b600080fd5b610060600480360381019061005b9190610129565b61009e565b005b61006a6100df565b6040516100779190610165565b60405180910390f35b6100886100e8565b6040516100959190610165565b60405180910390f35b806000819055507f30abf1e3f71dc652b1df75682ae16af5c006ad42cd23d00001e8e106d8af4e1d816040516100d49190610165565b60405180910390a150565b60008054905090565b60005481565b600080fd5b6000819050919050565b610106816100f3565b811461011157600080fd5b50565b600081359050610123816100fd565b92915050565b60006020828403121561013f5761013e6100ee565b5b600061014d84828501610114565b91505092915050565b61015f816100f3565b82525050565b600060208201905061017a6000830184610156565b9291505056fea2646970667358221220d4b07182e3d4eacf517806cf9c24efac6b5836d9b73072d342ae733f24f7462c64736f6c63430008130033",
  "linkReferences": {},
  "deployedLinkReferences": {}
}